{
  "_format": "hh-sol-artifact-1",
  "contractName": "OwnableToAccessControlAdapter",
  "sourceName": "contracts/OwnableToAccessControlAdapter.sol",
  "abi": [
    {
      "inputs": [
        {
          "internalType": "address",
          "name": "_target",
          "type": "address"
        },
        {
          "internalType": "address",
          "name": "_owner",
          "type": "address"
        }
      ],
      "stateMutability": "nonpayable",
      "type": "constructor"
    },
    {
      "inputs": [],
      "name": "AccessDenied",
      "type": "error"
    },
    {
      "anonymous": false,
      "inputs": [
        {
          "indexed": false,
          "internalType": "bytes4",
          "name": "selector",
          "type": "bytes4"
        },
        {
          "indexed": false,
          "internalType": "uint256",
          "name": "role",
          "type": "uint256"
        }
      ],
      "name": "AccessRoleUpdated",
      "type": "event"
    },
    {
      "anonymous": false,
      "inputs": [
        {
          "indexed": false,
          "internalType": "bytes4",
          "name": "selector",
          "type": "bytes4"
        },
        {
          "indexed": false,
          "internalType": "bytes",
          "name": "data",
          "type": "bytes"
        },
        {
          "indexed": false,
          "internalType": "bytes",
          "name": "result",
          "type": "bytes"
        }
      ],
      "name": "ExecutionComplete",
      "type": "event"
    },
    {
      "anonymous": false,
      "inputs": [
        {
          "indexed": true,
          "internalType": "address",
          "name": "operator",
          "type": "address"
        },
        {
          "indexed": false,
          "internalType": "uint256",
          "name": "requested",
          "type": "uint256"
        },
        {
          "indexed": false,
          "internalType": "uint256",
          "name": "assigned",
          "type": "uint256"
        }
      ],
      "name": "RoleUpdated",
      "type": "event"
    },
    {
      "stateMutability": "payable",
      "type": "fallback"
    },
    {
      "inputs": [],
      "name": "ROLE_ACCESS_MANAGER",
      "outputs": [
        {
          "internalType": "uint256",
          "name": "",
          "type": "uint256"
        }
      ],
      "stateMutability": "view",
      "type": "function"
    },
    {
      "inputs": [],
      "name": "ROLE_ACCESS_ROLES_MANAGER",
      "outputs": [
        {
          "internalType": "uint256",
          "name": "",
          "type": "uint256"
        }
      ],
      "stateMutability": "view",
      "type": "function"
    },
    {
      "inputs": [
        {
          "internalType": "bytes4",
          "name": "",
          "type": "bytes4"
        }
      ],
      "name": "accessRoles",
      "outputs": [
        {
          "internalType": "uint256",
          "name": "",
          "type": "uint256"
        }
      ],
      "stateMutability": "view",
      "type": "function"
    },
    {
      "inputs": [
        {
          "internalType": "bytes",
          "name": "data",
          "type": "bytes"
        }
      ],
      "name": "execute",
      "outputs": [
        {
          "internalType": "bytes",
          "name": "",
          "type": "bytes"
        }
      ],
      "stateMutability": "payable",
      "type": "function"
    },
    {
      "inputs": [],
      "name": "features",
      "outputs": [
        {
          "internalType": "uint256",
          "name": "",
          "type": "uint256"
        }
      ],
      "stateMutability": "view",
      "type": "function"
    },
    {
      "inputs": [
        {
          "internalType": "address",
          "name": "operator",
          "type": "address"
        }
      ],
      "name": "getRole",
      "outputs": [
        {
          "internalType": "uint256",
          "name": "",
          "type": "uint256"
        }
      ],
      "stateMutability": "view",
      "type": "function"
    },
    {
      "inputs": [],
      "name": "target",
      "outputs": [
        {
          "internalType": "address",
          "name": "",
          "type": "address"
        }
      ],
      "stateMutability": "view",
      "type": "function"
    },
    {
      "inputs": [
        {
          "internalType": "bytes4",
          "name": "selector",
          "type": "bytes4"
        },
        {
          "internalType": "uint256",
          "name": "role",
          "type": "uint256"
        }
      ],
      "name": "updateAccessRole",
      "outputs": [],
      "stateMutability": "nonpayable",
      "type": "function"
    },
    {
      "inputs": [
        {
          "internalType": "string",
          "name": "signature",
          "type": "string"
        },
        {
          "internalType": "uint256",
          "name": "role",
          "type": "uint256"
        }
      ],
      "name": "updateAccessRole",
      "outputs": [],
      "stateMutability": "nonpayable",
      "type": "function"
    },
    {
      "inputs": [
        {
          "internalType": "uint256",
          "name": "_mask",
          "type": "uint256"
        }
      ],
      "name": "updateFeatures",
      "outputs": [],
      "stateMutability": "nonpayable",
      "type": "function"
    },
    {
      "inputs": [
        {
          "internalType": "address",
          "name": "operator",
          "type": "address"
        },
        {
          "internalType": "uint256",
          "name": "role",
          "type": "uint256"
        }
      ],
      "name": "updateRole",
      "outputs": [],
      "stateMutability": "nonpayable",
      "type": "function"
    },
    {
      "stateMutability": "payable",
      "type": "receive"
    }
  ],
  "bytecode": "0x608060405234801561001057600080fd5b50604051610a23380380610a2383398101604081905261002f9161012f565b80600061003f82600019806100bb565b61004a3082806100bb565b50506001600160a01b0382166100955760405162461bcd60e51b815260206004820152600c60248201526b7a65726f206164647265737360a01b604482015260640160405180910390fd5b50600180546001600160a01b0319166001600160a01b0392909216919091179055610162565b6001600160a01b0383166000818152602081815260409182902084905581518581529081018490527fe9be537308880e0f56b7d7cfd7abf85f14c4934486d138f848b92a0cbaf659b4910160405180910390a2505050565b80516001600160a01b038116811461012a57600080fd5b919050565b6000806040838503121561014257600080fd5b61014b83610113565b915061015960208401610113565b90509250929050565b6108b2806101716000396000f3fe6080604052600436106100a05760003560e01c8063491d261111610064578063491d2611146101d35780635defb40d146101f3578063ae5b102e14610213578063ae682e2e14610233578063d4b839921461024b578063d5bb7f6714610283576100bf565b806309c5eabe146100ff5780630e82fe25146101285780632b5214161461016357806334e48c9e14610185578063442767331461019d576100bf565b366100bf576100bd604051806020016040528060008152506102a3565b005b6100bd6000368080601f0160208091040260200160405190810160405280939291908181526020018383808284376000920191909152506102a392505050565b61011261010d36600461064c565b6102a3565b60405161011f91906106ed565b60405180910390f35b34801561013457600080fd5b5061015561014336600461071d565b60026020526000908152604090205481565b60405190815260200161011f565b34801561016f57600080fd5b5030600090815260208190526040902054610155565b34801561019157600080fd5b50610155600160fd1b81565b3480156101a957600080fd5b506101556101b836600461074f565b6001600160a01b031660009081526020819052604090205490565b3480156101df57600080fd5b506100bd6101ee36600461076a565b610411565b3480156101ff57600080fd5b506100bd61020e366004610794565b610477565b34801561021f57600080fd5b506100bd61022e3660046107ed565b61048c565b34801561023f57600080fd5b50610155600160ff1b81565b34801561025757600080fd5b5060015461026b906001600160a01b031681565b6040516001600160a01b03909116815260200161011f565b34801561028f57600080fd5b506100bd61029e366004610809565b6104f5565b602081015181516060919015610323576001600160e01b03198116600090815260026020526040812054908190036103185760405162461bcd60e51b81526020600482015260136024820152721858d8d95cdcc81c9bdb19481b9bdd081cd95d606a1b60448201526064015b60405180910390fd5b61032181610502565b505b60015460405160009182916001600160a01b03909116903490610347908890610822565b60006040518083038185875af1925050503d8060008114610384576040519150601f19603f3d011682016040523d82523d6000602084013e610389565b606091505b5091509150816103ce5760405162461bcd60e51b815260206004820152601060248201526f195e1958dd5d1a5bdb8819985a5b195960821b604482015260640161030f565b7f57a62eca76fc623c92f161d2a4b851851ece707135ce2af1eec256d660571b6d8386836040516104019392919061083e565b60405180910390a1949350505050565b61041e600160fd1b610502565b6001600160e01b03198216600081815260026020908152604091829020849055815192835282018390527fdb8ed917742b49e83acd1322bcaa8f18b1e5f78a70784c43ea14db7ab50e628d910160405180910390a15050565b610488828051906020012082610411565b5050565b610499600160ff1b610502565b61048882826104f0336104c1876001600160a01b031660009081526020819052604090205490565b6001600160a01b0391909116600090815260208190526040902054600019808818821618908716919091171690565b610513565b6104ff308261048c565b50565b6104ff61050e8261056b565b61057d565b6001600160a01b0383166000818152602081815260409182902084905581518581529081018490527fe9be537308880e0f56b7d7cfd7abf85f14c4934486d138f848b92a0cbaf659b4910160405180910390a2505050565b6000610577338361059b565b92915050565b806104ff57604051634ca8886760e01b815260040160405180910390fd5b6001600160a01b038216600090815260208190526040812054821682145b9392505050565b634e487b7160e01b600052604160045260246000fd5b600067ffffffffffffffff808411156105f1576105f16105c0565b604051601f8501601f19908116603f01168101908282118183101715610619576106196105c0565b8160405280935085815286868601111561063257600080fd5b858560208301376000602087830101525050509392505050565b60006020828403121561065e57600080fd5b813567ffffffffffffffff81111561067557600080fd5b8201601f8101841361068657600080fd5b610695848235602084016105d6565b949350505050565b60005b838110156106b85781810151838201526020016106a0565b50506000910152565b600081518084526106d981602086016020860161069d565b601f01601f19169290920160200192915050565b6020815260006105b960208301846106c1565b80356001600160e01b03198116811461071857600080fd5b919050565b60006020828403121561072f57600080fd5b6105b982610700565b80356001600160a01b038116811461071857600080fd5b60006020828403121561076157600080fd5b6105b982610738565b6000806040838503121561077d57600080fd5b61078683610700565b946020939093013593505050565b600080604083850312156107a757600080fd5b823567ffffffffffffffff8111156107be57600080fd5b8301601f810185136107cf57600080fd5b6107de858235602084016105d6565b95602094909401359450505050565b6000806040838503121561080057600080fd5b61078683610738565b60006020828403121561081b57600080fd5b5035919050565b6000825161083481846020870161069d565b9190910192915050565b63ffffffff60e01b8416815260606020820152600061086060608301856106c1565b828103604084015261087281856106c1565b969550505050505056fea26469706673582212201ba377eb6a91d1e61a05796e2c3f7b98c258168e3db52e709dd2c3a003d3eb7864736f6c63430008150033",
  "linkReferences": {},
  "deployedLinkReferences": {}
}