{
  "_format": "hh-sol-artifact-1",
  "contractName": "OwnableToAccessControlAdapter",
  "sourceName": "contracts/OwnableToAccessControlAdapter.sol",
  "abi": [
    {
      "inputs": [
        {
          "internalType": "address",
          "name": "_target",
          "type": "address"
        },
        {
          "internalType": "address",
          "name": "_owner",
          "type": "address"
        }
      ],
      "stateMutability": "nonpayable",
      "type": "constructor"
    },
    {
      "inputs": [],
      "name": "AccessDenied",
      "type": "error"
    },
    {
      "anonymous": false,
      "inputs": [
        {
          "indexed": false,
          "internalType": "bytes4",
          "name": "selector",
          "type": "bytes4"
        },
        {
          "indexed": false,
          "internalType": "uint256",
          "name": "role",
          "type": "uint256"
        }
      ],
      "name": "AccessRoleUpdated",
      "type": "event"
    },
    {
      "anonymous": false,
      "inputs": [
        {
          "indexed": false,
          "internalType": "bytes4",
          "name": "selector",
          "type": "bytes4"
        },
        {
          "indexed": false,
          "internalType": "bytes",
          "name": "data",
          "type": "bytes"
        },
        {
          "indexed": false,
          "internalType": "bytes",
          "name": "result",
          "type": "bytes"
        }
      ],
      "name": "ExecutionComplete",
      "type": "event"
    },
    {
      "anonymous": false,
      "inputs": [
        {
          "indexed": true,
          "internalType": "address",
          "name": "by",
          "type": "address"
        },
        {
          "indexed": true,
          "internalType": "address",
          "name": "operator",
          "type": "address"
        },
        {
          "indexed": false,
          "internalType": "uint256",
          "name": "requested",
          "type": "uint256"
        },
        {
          "indexed": false,
          "internalType": "uint256",
          "name": "assigned",
          "type": "uint256"
        }
      ],
      "name": "RoleUpdated",
      "type": "event"
    },
    {
      "stateMutability": "payable",
      "type": "fallback"
    },
    {
      "inputs": [],
      "name": "ROLE_ACCESS_MANAGER",
      "outputs": [
        {
          "internalType": "uint256",
          "name": "",
          "type": "uint256"
        }
      ],
      "stateMutability": "view",
      "type": "function"
    },
    {
      "inputs": [],
      "name": "ROLE_ACCESS_ROLES_MANAGER",
      "outputs": [
        {
          "internalType": "uint256",
          "name": "",
          "type": "uint256"
        }
      ],
      "stateMutability": "view",
      "type": "function"
    },
    {
      "inputs": [
        {
          "internalType": "bytes4",
          "name": "",
          "type": "bytes4"
        }
      ],
      "name": "accessRoles",
      "outputs": [
        {
          "internalType": "uint256",
          "name": "",
          "type": "uint256"
        }
      ],
      "stateMutability": "view",
      "type": "function"
    },
    {
      "inputs": [
        {
          "internalType": "bytes",
          "name": "data",
          "type": "bytes"
        }
      ],
      "name": "execute",
      "outputs": [
        {
          "internalType": "bytes",
          "name": "",
          "type": "bytes"
        }
      ],
      "stateMutability": "payable",
      "type": "function"
    },
    {
      "inputs": [],
      "name": "features",
      "outputs": [
        {
          "internalType": "uint256",
          "name": "",
          "type": "uint256"
        }
      ],
      "stateMutability": "view",
      "type": "function"
    },
    {
      "inputs": [
        {
          "internalType": "address",
          "name": "operator",
          "type": "address"
        }
      ],
      "name": "getRole",
      "outputs": [
        {
          "internalType": "uint256",
          "name": "",
          "type": "uint256"
        }
      ],
      "stateMutability": "view",
      "type": "function"
    },
    {
      "inputs": [],
      "name": "target",
      "outputs": [
        {
          "internalType": "address",
          "name": "",
          "type": "address"
        }
      ],
      "stateMutability": "view",
      "type": "function"
    },
    {
      "inputs": [
        {
          "internalType": "bytes4",
          "name": "selector",
          "type": "bytes4"
        },
        {
          "internalType": "uint256",
          "name": "role",
          "type": "uint256"
        }
      ],
      "name": "updateAccessRole",
      "outputs": [],
      "stateMutability": "nonpayable",
      "type": "function"
    },
    {
      "inputs": [
        {
          "internalType": "string",
          "name": "signature",
          "type": "string"
        },
        {
          "internalType": "uint256",
          "name": "role",
          "type": "uint256"
        }
      ],
      "name": "updateAccessRole",
      "outputs": [],
      "stateMutability": "nonpayable",
      "type": "function"
    },
    {
      "inputs": [
        {
          "internalType": "uint256",
          "name": "_mask",
          "type": "uint256"
        }
      ],
      "name": "updateFeatures",
      "outputs": [],
      "stateMutability": "nonpayable",
      "type": "function"
    },
    {
      "inputs": [
        {
          "internalType": "address",
          "name": "operator",
          "type": "address"
        },
        {
          "internalType": "uint256",
          "name": "role",
          "type": "uint256"
        }
      ],
      "name": "updateRole",
      "outputs": [],
      "stateMutability": "nonpayable",
      "type": "function"
    },
    {
      "stateMutability": "payable",
      "type": "receive"
    }
  ],
  "bytecode": "0x60a060405234801561001057600080fd5b50604051611f41380380611f4183398181016040528101906100329190610525565b80600061004f677613322f42d2d0c760c01b6103a560201b60201c565b61006967abdbcc562f6d0d0b60c01b6103a560201b60201c565b610083679e5ef2189bf37e7160c01b6103a560201b60201c565b600073ffffffffffffffffffffffffffffffffffffffff168273ffffffffffffffffffffffffffffffffffffffff161461013b576100d167d4ad1de4e290c10b60c01b6103a560201b60201c565b6100eb67d089de853fa9d11260c01b6103a560201b60201c565b6101056739aefef87069252760c01b6103a560201b60201c565b610136827fffffffffffffffffffffffffffffffffffffffffffffffffffffffffffffffff806103a860201b60201c565b610156565b6101556781e11a05156a673060c01b6103a560201b60201c565b5b61017067ab673ab68a727b2f60c01b6103a560201b60201c565b61018a67fb1482f715bfa97f60c01b6103a560201b60201c565b61019b3082836103a860201b60201c565b50506101b767898449670e4fe56560c01b6104bf60201b60201c565b6101d1674ae99f2bb07edb8160c01b6104bf60201b60201c565b6101eb67986ed0954e8cde6260c01b6104bf60201b60201c565b6102056787979f39fe588bc560c01b6104bf60201b60201c565b600073ffffffffffffffffffffffffffffffffffffffff168273ffffffffffffffffffffffffffffffffffffffff1603610274576040517f08c379a000000000000000000000000000000000000000000000000000000000815260040161026b906105c2565b60405180910390fd5b61028e67965ee7cfcb185ca160c01b6104bf60201b60201c565b6102a867cde5942e2dec47f860c01b6104bf60201b60201c565b6102c267e608d400cd724db460c01b6104bf60201b60201c565b6102dc672e4456d9ce59919960c01b6104bf60201b60201c565b60008273ffffffffffffffffffffffffffffffffffffffff163b03610336576040517f08c379a000000000000000000000000000000000000000000000000000000000815260040161032d9061062e565b60405180910390fd5b6103506708c9b349bc7a473b60c01b6104bf60201b60201c565b61036a6778944fe844e3e6b360c01b6104bf60201b60201c565b8173ffffffffffffffffffffffffffffffffffffffff1660808173ffffffffffffffffffffffffffffffffffffffff16815250505050610690565b50565b6103c267174ea829f480e46760c01b6103a560201b60201c565b6103dc6740721ad6e186b1e260c01b6103a560201b60201c565b806000808573ffffffffffffffffffffffffffffffffffffffff1673ffffffffffffffffffffffffffffffffffffffff16815260200190815260200160002081905550610439671377a0d3aef609df60c01b6103a560201b60201c565b61045367f41e87278562dae160c01b6103a560201b60201c565b8273ffffffffffffffffffffffffffffffffffffffff163373ffffffffffffffffffffffffffffffffffffffff167f5a10526456f5116c0b7b80582c217d666243fd51b6a2d92c8011e601c2462e5f84846040516104b2929190610667565b60405180910390a3505050565b50565b600080fd5b600073ffffffffffffffffffffffffffffffffffffffff82169050919050565b60006104f2826104c7565b9050919050565b610502816104e7565b811461050d57600080fd5b50565b60008151905061051f816104f9565b92915050565b6000806040838503121561053c5761053b6104c2565b5b600061054a85828601610510565b925050602061055b85828601610510565b9150509250929050565b600082825260208201905092915050565b7f7a65726f20616464726573730000000000000000000000000000000000000000600082015250565b60006105ac600c83610565565b91506105b782610576565b602082019050919050565b600060208201905081810360008301526105db8161059f565b9050919050565b7f454f410000000000000000000000000000000000000000000000000000000000600082015250565b6000610618600383610565565b9150610623826105e2565b602082019050919050565b600060208201905081810360008301526106478161060b565b9050919050565b6000819050919050565b6106618161064e565b82525050565b600060408201905061067c6000830185610658565b6106896020830184610658565b9392505050565b60805161188f6106b26000396000818161058601526108f0015261188f6000f3fe6080604052600436106100a05760003560e01c8063491d261111610064578063491d26111461025f5780635defb40d14610288578063ae5b102e146102b1578063ae682e2e146102da578063d4b8399214610305578063d5bb7f6714610330576100d3565b806309c5eabe1461015f5780630e82fe251461018f5780632b521416146101cc57806334e48c9e146101f75780634427673314610222576100d3565b366100d3576100b967e593d89ea99226a660c01b610359565b6100d16040518060200160405280600081525061035c565b005b6100e767bd606008b77da66760c01b610359565b6100fb673f50887809e837c060c01b610359565b61010f6736d9d98b2c50edbe60c01b610359565b61015d6000368080601f016020809104026020016040519081016040528093929190818152602001838380828437600081840152601f19601f8201169050808301925050505050505061035c565b005b6101796004803603810190610174919061124f565b61035c565b6040516101869190611317565b60405180910390f35b34801561019b57600080fd5b506101b660048036038101906101b19190611391565b6106d9565b6040516101c391906113d7565b60405180910390f35b3480156101d857600080fd5b506101e16106f1565b6040516101ee91906113d7565b60405180910390f35b34801561020357600080fd5b5061020c61073d565b60405161021991906113d7565b60405180910390f35b34801561022e57600080fd5b5061024960048036038101906102449190611450565b610761565b60405161025691906113d7565b60405180910390f35b34801561026b57600080fd5b50610286600480360381019061028191906114a9565b6107e5565b005b34801561029457600080fd5b506102af60048036038101906102aa919061158a565b61082f565b005b3480156102bd57600080fd5b506102d860048036038101906102d391906115e6565b610880565b005b3480156102e657600080fd5b506102ef6108ca565b6040516102fc91906113d7565b60405180910390f35b34801561031157600080fd5b5061031a6108ee565b6040516103279190611635565b60405180910390f35b34801561033c57600080fd5b5061035760048036038101906103529190611650565b610912565b005b50565b606061037267054d2f8763b9e74e60c01b610359565b610386676c7e71a508a8e4e960c01b610359565b61039a678f23e73f17b119b060c01b610359565b60006103b0671f2c8dec2fd4a78f60c01b610359565b602083015190506103cb672f1e9a21e8233dfb60c01b610359565b6103df67756348d6bd93451160c01b610359565b6000835114610544576103fc6732a0faf3783974f560c01b610359565b61041067066f5f64b9fcabdf60c01b610359565b6104246746f7f4298644cd7f60c01b610359565b600060016000837bffffffffffffffffffffffffffffffffffffffffffffffffffffffff19167bffffffffffffffffffffffffffffffffffffffffffffffffffffffff1916815260200190815260200160002054905061048e67d66f2bf6611be5a260c01b610359565b6104a2675cdeddf06c1a5cd960c01b610359565b6104b667a55b1d00d1ec0c2060c01b610359565b600081036104f9576040517f08c379a00000000000000000000000000000000000000000000000000000000081526004016104f0906116da565b60405180910390fd5b61050d674217ea5c7c63424160c01b610359565b610521678cfe8f147280a96e60c01b610359565b61053567db16c721a07fd28d60c01b610359565b61053e8161095b565b50610559565b61055867f940f347ad3dbf2d60c01b610359565b5b61056d67b1bd7ef8230aef5060c01b610359565b61058167fdd7adc829d16ee560c01b610359565b6000807f000000000000000000000000000000000000000000000000000000000000000073ffffffffffffffffffffffffffffffffffffffff1634866040516105ca9190611736565b60006040518083038185875af1925050503d8060008114610607576040519150601f19603f3d011682016040523d82523d6000602084013e61060c565b606091505b509150915061062567c2f0f7eac214311f60c01b610359565b61063967f640cfdd17bc941560c01b610359565b61064382826109ab565b610657674ebf7e9a6edc573b60c01b610359565b61066b6739706ba77c115f7a60c01b610359565b7f57a62eca76fc623c92f161d2a4b851851ece707135ce2af1eec256d660571b6d83868360405161069e9392919061175c565b60405180910390a16106ba67c31bb1bf0d46e0ac60c01b610359565b6106ce6783fb944be6dde17f60c01b610359565b809350505050919050565b60016020528060005260406000206000915090505481565b6000610707679ec54eeefbcd666760c01b610a85565b61071b67348be0365a53fd7760c01b610a85565b61072f671a60181697361d8460c01b610a85565b61073830610761565b905090565b7f200000000000000000000000000000000000000000000000000000000000000081565b60006107776752f4f6b2ad04d49360c01b610a85565b61078b6732135927763f17bd60c01b610a85565b61079f672c2c0a1f1be0862c60c01b610a85565b6000808373ffffffffffffffffffffffffffffffffffffffff1673ffffffffffffffffffffffffffffffffffffffff168152602001908152602001600020549050919050565b6107f9671d7d36a59d86672060c01b610359565b61080d672c8f480a96bc24cc60c01b610359565b6108216783948538e863eda360c01b610359565b61082b8282610a88565b5050565b610843670abd9183eb06c37b60c01b610359565b6108576767dc4f59be9f707060c01b610359565b61086b67b3cd590b49b1044060c01b610359565b61087c828051906020012082610a88565b5050565b61089467590d3a5cd70443e260c01b610a85565b6108a867fac9fcaca4bda7ff60c01b610a85565b6108bc67aec0cb7d982df87e60c01b610a85565b6108c68282610bbc565b5050565b7f800000000000000000000000000000000000000000000000000000000000000081565b7f000000000000000000000000000000000000000000000000000000000000000081565b61092667b5f3c1ab40a10d0c60c01b610a85565b61093a673771565bdef26b2f60c01b610a85565b61094e6746be5309bd3ee79560c01b610a85565b6109583082610bbc565b50565b61096f6740a2a806ac7aa43e60c01b610a85565b61098367104cfc923397d27e60c01b610a85565b6109976780efa81c732c3e8460c01b610a85565b6109a86109a382610c6a565b610cb9565b50565b6109bf67ac3255733339d03260c01b610359565b6109d367d40c8f91719c22d160c01b610359565b6109e767f9bba4a24f87a8d760c01b610359565b81610a6c57610a0067f2a4aed4d76310f360c01b610359565b610a14670e783017a0721dd660c01b610359565b610a2867d14517d619b4b59260c01b610359565b610a67816040518060400160405280601081526020017f657865637574696f6e206661696c656400000000000000000000000000000000815250610d6b565b610a81565b610a8067eaddc9ac774092cc60c01b610359565b5b5050565b50565b610a9c6761d332c36c904f4f60c01b610359565b610ab0675ba29a0c9394831d60c01b610359565b610ac4675813e6b0decc461260c01b610359565b610aed7f200000000000000000000000000000000000000000000000000000000000000061095b565b610b0167960921403ea19dad60c01b610359565b8060016000847bffffffffffffffffffffffffffffffffffffffffffffffffffffffff19167bffffffffffffffffffffffffffffffffffffffffffffffffffffffff1916815260200190815260200160002081905550610b6b67c6a73f85e9e80eb660c01b610359565b610b7f67d04a010d43e7d09060c01b610359565b7fdb8ed917742b49e83acd1322bcaa8f18b1e5f78a70784c43ea14db7ab50e628d8282604051610bb09291906117a1565b60405180910390a15050565b610bd067b725d614ba16c39660c01b610a85565b610be4671614cbd24d78c74960c01b610a85565b610bf867edee7f61ccdce15160c01b610a85565b610c217f800000000000000000000000000000000000000000000000000000000000000061095b565b610c35678a30ead37a889f4e60c01b610a85565b610c4967ccf63fd09f3ce98d60c01b610a85565b610c668282610c6133610c5b87610761565b86610e5b565b610f53565b5050565b6000610c806709e4db20d934910b60c01b610a85565b610c946741204b9a51d6c9f160c01b610a85565b610ca86792262bee46c3692d60c01b610a85565b610cb23383611052565b9050919050565b610ccd6799b1680f493156cf60c01b610a85565b610ce167e5723a2d59ed9d5560c01b610a85565b610cf56711dfdae13b3fbbb460c01b610a85565b80610d5457610d0e6773b0af4d465a74dc60c01b610a85565b610d2267181efe77d88caea360c01b610a85565b6040517f4ca8886700000000000000000000000000000000000000000000000000000000815260040160405180910390fd5b610d6867baf7e61b4ebd70cb60c01b610a85565b50565b610d7f678fea515ec6a3f9a660c01b610359565b610d9367ebbf9d77ff2e678160c01b610359565b610da767f12cc171a8c2ce6b60c01b610359565b600082511115610de257610dc56707dbfd111eade9f660c01b610359565b610dd96748459107a462a22c60c01b610359565b81518083602001fd5b610df66757b04a0b825ab95960c01b610359565b610e0a671fef5a88d566ad1e60c01b610359565b610e1e67956f4810b4c6d08860c01b610359565b806040517f08c379a0000000000000000000000000000000000000000000000000000000008152600401610e52919061180e565b60405180910390fd5b6000610e7167190e15e5d086548e60c01b610a85565b610e8567a30836eda26f263a60c01b610a85565b610e9967984345ea049a4b2660c01b610a85565b6000610ea485610761565b9050610eba67d0c1cfc251c510c060c01b610a85565b82811684179350610ed5671ca8600c94b78baf60c01b610a85565b827fffffffffffffffffffffffffffffffffffffffffffffffffffffffffffffffff1881167fffffffffffffffffffffffffffffffffffffffffffffffffffffffffffffffff1884169350610f34676cfe3b05cada06c060c01b610a85565b610f486718b52b9ea2a3d89060c01b610a85565b839150509392505050565b610f6767174ea829f480e46760c01b610a85565b610f7b6740721ad6e186b1e260c01b610a85565b806000808573ffffffffffffffffffffffffffffffffffffffff1673ffffffffffffffffffffffffffffffffffffffff16815260200190815260200160002081905550610fd2671377a0d3aef609df60c01b610a85565b610fe667f41e87278562dae160c01b610a85565b8273ffffffffffffffffffffffffffffffffffffffff163373ffffffffffffffffffffffffffffffffffffffff167f5a10526456f5116c0b7b80582c217d666243fd51b6a2d92c8011e601c2462e5f8484604051611045929190611830565b60405180910390a3505050565b600061106867e549c177e1c9e1ec60c01b610a85565b61107c67de7b343e2238e3db60c01b610a85565b61109067df992b19761c049e60c01b610a85565b6110a261109c84610761565b836110aa565b905092915050565b60006110c067597cbd94d4df424460c01b610a85565b6110d467b24a4597bdd9cf3960c01b610a85565b6110e8673d8b31b13c60409960c01b610a85565b8182841614905092915050565b6000604051905090565b600080fd5b600080fd5b600080fd5b600080fd5b6000601f19601f8301169050919050565b7f4e487b7100000000000000000000000000000000000000000000000000000000600052604160045260246000fd5b61115c82611113565b810181811067ffffffffffffffff8211171561117b5761117a611124565b5b80604052505050565b600061118e6110f5565b905061119a8282611153565b919050565b600067ffffffffffffffff8211156111ba576111b9611124565b5b6111c382611113565b9050602081019050919050565b82818337600083830152505050565b60006111f26111ed8461119f565b611184565b90508281526020810184848401111561120e5761120d61110e565b5b6112198482856111d0565b509392505050565b600082601f83011261123657611235611109565b5b81356112468482602086016111df565b91505092915050565b600060208284031215611265576112646110ff565b5b600082013567ffffffffffffffff81111561128357611282611104565b5b61128f84828501611221565b91505092915050565b600081519050919050565b600082825260208201905092915050565b60005b838110156112d25780820151818401526020810190506112b7565b60008484015250505050565b60006112e982611298565b6112f381856112a3565b93506113038185602086016112b4565b61130c81611113565b840191505092915050565b6000602082019050818103600083015261133181846112de565b905092915050565b60007fffffffff0000000000000000000000000000000000000000000000000000000082169050919050565b61136e81611339565b811461137957600080fd5b50565b60008135905061138b81611365565b92915050565b6000602082840312156113a7576113a66110ff565b5b60006113b58482850161137c565b91505092915050565b6000819050919050565b6113d1816113be565b82525050565b60006020820190506113ec60008301846113c8565b92915050565b600073ffffffffffffffffffffffffffffffffffffffff82169050919050565b600061141d826113f2565b9050919050565b61142d81611412565b811461143857600080fd5b50565b60008135905061144a81611424565b92915050565b600060208284031215611466576114656110ff565b5b60006114748482850161143b565b91505092915050565b611486816113be565b811461149157600080fd5b50565b6000813590506114a38161147d565b92915050565b600080604083850312156114c0576114bf6110ff565b5b60006114ce8582860161137c565b92505060206114df85828601611494565b9150509250929050565b600067ffffffffffffffff82111561150457611503611124565b5b61150d82611113565b9050602081019050919050565b600061152d611528846114e9565b611184565b9050828152602081018484840111156115495761154861110e565b5b6115548482856111d0565b509392505050565b600082601f83011261157157611570611109565b5b813561158184826020860161151a565b91505092915050565b600080604083850312156115a1576115a06110ff565b5b600083013567ffffffffffffffff8111156115bf576115be611104565b5b6115cb8582860161155c565b92505060206115dc85828601611494565b9150509250929050565b600080604083850312156115fd576115fc6110ff565b5b600061160b8582860161143b565b925050602061161c85828601611494565b9150509250929050565b61162f81611412565b82525050565b600060208201905061164a6000830184611626565b92915050565b600060208284031215611666576116656110ff565b5b600061167484828501611494565b91505092915050565b600082825260208201905092915050565b7f61636365737320726f6c65206e6f742073657400000000000000000000000000600082015250565b60006116c460138361167d565b91506116cf8261168e565b602082019050919050565b600060208201905081810360008301526116f3816116b7565b9050919050565b600081905092915050565b600061171082611298565b61171a81856116fa565b935061172a8185602086016112b4565b80840191505092915050565b60006117428284611705565b915081905092915050565b61175681611339565b82525050565b6000606082019050611771600083018661174d565b818103602083015261178381856112de565b9050818103604083015261179781846112de565b9050949350505050565b60006040820190506117b6600083018561174d565b6117c360208301846113c8565b9392505050565b600081519050919050565b60006117e0826117ca565b6117ea818561167d565b93506117fa8185602086016112b4565b61180381611113565b840191505092915050565b6000602082019050818103600083015261182881846117d5565b905092915050565b600060408201905061184560008301856113c8565b61185260208301846113c8565b939250505056fea2646970667358221220814daf115792d47ac42ae8f38736f18394eec8639bb93d683bc30a930ef168c164736f6c634300081c0033",
  "linkReferences": {},
  "deployedLinkReferences": {}
}