{
  "_format": "hh-sol-artifact-1",
  "contractName": "OwnableToAccessControlAdapter",
  "sourceName": "contracts/OwnableToAccessControlAdapter.sol",
  "abi": [
    {
      "inputs": [
        {
          "internalType": "address",
          "name": "_target",
          "type": "address"
        },
        {
          "internalType": "address",
          "name": "_owner",
          "type": "address"
        }
      ],
      "stateMutability": "nonpayable",
      "type": "constructor"
    },
    {
      "anonymous": false,
      "inputs": [
        {
          "indexed": false,
          "internalType": "bytes4",
          "name": "selector",
          "type": "bytes4"
        },
        {
          "indexed": false,
          "internalType": "uint256",
          "name": "role",
          "type": "uint256"
        }
      ],
      "name": "AccessRoleUpdated",
      "type": "event"
    },
    {
      "anonymous": false,
      "inputs": [
        {
          "indexed": false,
          "internalType": "bytes4",
          "name": "selector",
          "type": "bytes4"
        },
        {
          "indexed": false,
          "internalType": "bytes",
          "name": "data",
          "type": "bytes"
        },
        {
          "indexed": false,
          "internalType": "bytes",
          "name": "result",
          "type": "bytes"
        }
      ],
      "name": "ExecutionComplete",
      "type": "event"
    },
    {
      "anonymous": false,
      "inputs": [
        {
          "indexed": true,
          "internalType": "address",
          "name": "operator",
          "type": "address"
        },
        {
          "indexed": false,
          "internalType": "uint256",
          "name": "requested",
          "type": "uint256"
        },
        {
          "indexed": false,
          "internalType": "uint256",
          "name": "assigned",
          "type": "uint256"
        }
      ],
      "name": "RoleUpdated",
      "type": "event"
    },
    {
      "stateMutability": "payable",
      "type": "fallback"
    },
    {
      "inputs": [],
      "name": "ROLE_ACCESS_MANAGER",
      "outputs": [
        {
          "internalType": "uint256",
          "name": "",
          "type": "uint256"
        }
      ],
      "stateMutability": "view",
      "type": "function"
    },
    {
      "inputs": [],
      "name": "ROLE_ACCESS_ROLES_MANAGER",
      "outputs": [
        {
          "internalType": "uint256",
          "name": "",
          "type": "uint256"
        }
      ],
      "stateMutability": "view",
      "type": "function"
    },
    {
      "inputs": [
        {
          "internalType": "bytes4",
          "name": "",
          "type": "bytes4"
        }
      ],
      "name": "accessRoles",
      "outputs": [
        {
          "internalType": "uint256",
          "name": "",
          "type": "uint256"
        }
      ],
      "stateMutability": "view",
      "type": "function"
    },
    {
      "inputs": [
        {
          "internalType": "bytes",
          "name": "data",
          "type": "bytes"
        }
      ],
      "name": "execute",
      "outputs": [
        {
          "internalType": "bytes",
          "name": "",
          "type": "bytes"
        }
      ],
      "stateMutability": "payable",
      "type": "function"
    },
    {
      "inputs": [],
      "name": "features",
      "outputs": [
        {
          "internalType": "uint256",
          "name": "",
          "type": "uint256"
        }
      ],
      "stateMutability": "view",
      "type": "function"
    },
    {
      "inputs": [
        {
          "internalType": "address",
          "name": "operator",
          "type": "address"
        }
      ],
      "name": "getRole",
      "outputs": [
        {
          "internalType": "uint256",
          "name": "",
          "type": "uint256"
        }
      ],
      "stateMutability": "view",
      "type": "function"
    },
    {
      "inputs": [
        {
          "internalType": "uint256",
          "name": "required",
          "type": "uint256"
        }
      ],
      "name": "isFeatureEnabled",
      "outputs": [
        {
          "internalType": "bool",
          "name": "",
          "type": "bool"
        }
      ],
      "stateMutability": "view",
      "type": "function"
    },
    {
      "inputs": [
        {
          "internalType": "address",
          "name": "operator",
          "type": "address"
        },
        {
          "internalType": "uint256",
          "name": "required",
          "type": "uint256"
        }
      ],
      "name": "isOperatorInRole",
      "outputs": [
        {
          "internalType": "bool",
          "name": "",
          "type": "bool"
        }
      ],
      "stateMutability": "view",
      "type": "function"
    },
    {
      "inputs": [
        {
          "internalType": "uint256",
          "name": "required",
          "type": "uint256"
        }
      ],
      "name": "isSenderInRole",
      "outputs": [
        {
          "internalType": "bool",
          "name": "",
          "type": "bool"
        }
      ],
      "stateMutability": "view",
      "type": "function"
    },
    {
      "inputs": [],
      "name": "target",
      "outputs": [
        {
          "internalType": "address",
          "name": "",
          "type": "address"
        }
      ],
      "stateMutability": "view",
      "type": "function"
    },
    {
      "inputs": [
        {
          "internalType": "bytes4",
          "name": "selector",
          "type": "bytes4"
        },
        {
          "internalType": "uint256",
          "name": "role",
          "type": "uint256"
        }
      ],
      "name": "updateAccessRole",
      "outputs": [],
      "stateMutability": "nonpayable",
      "type": "function"
    },
    {
      "inputs": [
        {
          "internalType": "string",
          "name": "signature",
          "type": "string"
        },
        {
          "internalType": "uint256",
          "name": "role",
          "type": "uint256"
        }
      ],
      "name": "updateAccessRole",
      "outputs": [],
      "stateMutability": "nonpayable",
      "type": "function"
    },
    {
      "inputs": [
        {
          "internalType": "uint256",
          "name": "_mask",
          "type": "uint256"
        }
      ],
      "name": "updateFeatures",
      "outputs": [],
      "stateMutability": "nonpayable",
      "type": "function"
    },
    {
      "inputs": [
        {
          "internalType": "address",
          "name": "operator",
          "type": "address"
        },
        {
          "internalType": "uint256",
          "name": "role",
          "type": "uint256"
        }
      ],
      "name": "updateRole",
      "outputs": [],
      "stateMutability": "nonpayable",
      "type": "function"
    },
    {
      "stateMutability": "payable",
      "type": "receive"
    }
  ],
  "bytecode": "0x60806040523480156200001157600080fd5b5060405162001d6438038062001d6483398181016040528101906200003791906200039d565b8062000054676a3c945e4c6bdcef60c01b6200022360201b60201c565b620000706737be16ab8908fd8d60c01b6200022360201b60201c565b6200008c67613a786fe4756d0060c01b6200022360201b60201c565b620000bf817fffffffffffffffffffffffffffffffffffffffffffffffffffffffffffffffff806200022660201b60201c565b50620000dc673f50887809e837c060c01b6200033060201b60201c565b620000f86736d9d98b2c50edbe60c01b6200033060201b60201c565b6200011467ac3255733339d03260c01b6200033060201b60201c565b6200013067d40c8f91719c22d160c01b6200033060201b60201c565b600073ffffffffffffffffffffffffffffffffffffffff168273ffffffffffffffffffffffffffffffffffffffff1603620001a2576040517f08c379a0000000000000000000000000000000000000000000000000000000008152600401620001999062000445565b60405180910390fd5b620001be67f9bba4a24f87a8d760c01b6200033060201b60201c565b620001da67f2a4aed4d76310f360c01b6200033060201b60201c565b81600160006101000a81548173ffffffffffffffffffffffffffffffffffffffff021916908373ffffffffffffffffffffffffffffffffffffffff1602179055505050620004af565b50565b62000242673754610b5d8ccd7c60c01b6200022360201b60201c565b6200025e6701a6a25f6c6e466960c01b6200022360201b60201c565b806000808573ffffffffffffffffffffffffffffffffffffffff1673ffffffffffffffffffffffffffffffffffffffff16815260200190815260200160002081905550620002bd67c24383dcfa2f466d60c01b6200022360201b60201c565b620002d967ff834263ca28c8e460c01b6200022360201b60201c565b8273ffffffffffffffffffffffffffffffffffffffff167fe9be537308880e0f56b7d7cfd7abf85f14c4934486d138f848b92a0cbaf659b483836040516200032392919062000482565b60405180910390a2505050565b50565b600080fd5b600073ffffffffffffffffffffffffffffffffffffffff82169050919050565b6000620003658262000338565b9050919050565b620003778162000358565b81146200038357600080fd5b50565b60008151905062000397816200036c565b92915050565b60008060408385031215620003b757620003b662000333565b5b6000620003c78582860162000386565b9250506020620003da8582860162000386565b9150509250929050565b600082825260208201905092915050565b7f7a65726f20616464726573730000000000000000000000000000000000000000600082015250565b60006200042d600c83620003e4565b91506200043a82620003f5565b602082019050919050565b6000602082019050818103600083015262000460816200041e565b9050919050565b6000819050919050565b6200047c8162000467565b82525050565b600060408201905062000499600083018562000471565b620004a8602083018462000471565b9392505050565b6118a580620004bf6000396000f3fe6080604052600436106100e15760003560e01c8063725f36261161007f578063c688d69311610059578063c688d69314610383578063d4b83992146103c0578063d5bb7f67146103eb578063fcc2c0781461041457610114565b8063725f3626146102f2578063ae5b102e1461032f578063ae682e2e1461035857610114565b806334e48c9e116100bb57806334e48c9e146102385780634427673314610263578063491d2611146102a05780635defb40d146102c957610114565b806309c5eabe146101a05780630e82fe25146101d05780632b5214161461020d57610114565b36610114576100fa672658ca6fb19f308960c01b610451565b61011260405180602001604052806000815250610454565b005b61012867bf36ea5d1d6a304d60c01b610451565b61013c67932ebbf0d787941060c01b610451565b610150679e023ca7c68bfbcc60c01b610451565b61019e6000368080601f016020809104026020016040519081016040528093929190818152602001838380828437600081840152601f19601f82011690508083019250505050505050610454565b005b6101ba60048036038101906101b591906111bd565b610454565b6040516101c79190611285565b60405180910390f35b3480156101dc57600080fd5b506101f760048036038101906101f291906112ff565b610898565b6040516102049190611345565b60405180910390f35b34801561021957600080fd5b506102226108b0565b60405161022f9190611345565b60405180910390f35b34801561024457600080fd5b5061024d6108fc565b60405161025a9190611345565b60405180910390f35b34801561026f57600080fd5b5061028a600480360381019061028591906113be565b610920565b6040516102979190611345565b60405180910390f35b3480156102ac57600080fd5b506102c760048036038101906102c29190611417565b6109a4565b005b3480156102d557600080fd5b506102f060048036038101906102eb91906114f8565b610b3f565b005b3480156102fe57600080fd5b5061031960048036038101906103149190611554565b610b90565b604051610326919061159c565b60405180910390f35b34801561033b57600080fd5b50610356600480360381019061035191906115b7565b610be6565b005b34801561036457600080fd5b5061036d610cfb565b60405161037a9190611345565b60405180910390f35b34801561038f57600080fd5b506103aa60048036038101906103a591906115b7565b610d1f565b6040516103b7919061159c565b60405180910390f35b3480156103cc57600080fd5b506103d5610d77565b6040516103e29190611606565b60405180910390f35b3480156103f757600080fd5b50610412600480360381019061040d9190611554565b610d9d565b005b34801561042057600080fd5b5061043b60048036038101906104369190611554565b610de6565b604051610448919061159c565b60405180910390f35b50565b606061046a672191e5d622481afd60c01b610451565b61047e67b1d056e92b572c0360c01b610451565b6104926759ca32a4b7017d8760c01b610451565b60006104a867268ff7f647cf24ad60c01b610451565b602083015190506104c36701bcc701317d82f060c01b610451565b6104d767f5639a46c3c37b0560c01b610451565b60008351146106a3576104f467d300a4cb7f6a427860c01b610451565b61050867af247909b3045f5160c01b610451565b61051c6784bf48c38f902a6760c01b610451565b600060026000837bffffffffffffffffffffffffffffffffffffffffffffffffffffffff19167bffffffffffffffffffffffffffffffffffffffffffffffffffffffff191681526020019081526020016000205490506105866784ac2064c692838a60c01b610451565b61059a6736c1bb68e03488f160c01b610451565b6105ae672ab8299cd7bf693360c01b610451565b600081036105f1576040517f08c379a00000000000000000000000000000000000000000000000000000000081526004016105e89061167e565b60405180910390fd5b610605676768f5a99a214fd260c01b610451565b610619671df62c540a404d0360c01b610451565b61062d67612b5b1adf66122460c01b610451565b6106416771d1c7d86725317360c01b610451565b61064a81610de6565b610689576040517f08c379a0000000000000000000000000000000000000000000000000000000008152600401610680906116ea565b60405180910390fd5b61069d6760eb242826e84b5c60c01b610451565b506106b8565b6106b767c519640c531a320560c01b610451565b5b6106cc676d1fceeca9549cf360c01b610451565b6106e0675f51ca3b622fae8c60c01b610451565b600080600160009054906101000a900473ffffffffffffffffffffffffffffffffffffffff1673ffffffffffffffffffffffffffffffffffffffff16348660405161072b9190611746565b60006040518083038185875af1925050503d8060008114610768576040519150601f19603f3d011682016040523d82523d6000602084013e61076d565b606091505b509150915061078667aba9f46133cd7c5660c01b610451565b61079a67f286221975061a6f60c01b610451565b6107ae675437b59e37caddc860c01b610451565b816107ee576040517f08c379a00000000000000000000000000000000000000000000000000000000081526004016107e5906117a9565b60405180910390fd5b610802676f148c65257e6c7660c01b610451565b610816677b541cc04081a1ff60c01b610451565b61082a67663b606e3064eba560c01b610451565b7f57a62eca76fc623c92f161d2a4b851851ece707135ce2af1eec256d660571b6d83868360405161085d939291906117d8565b60405180910390a16108796772a96495c712f26e60c01b610451565b61088d6742ccc667d79cfcd360c01b610451565b809350505050919050565b60026020528060005260406000206000915090505481565b60006108c66766ce780cb4e1558d60c01b610e35565b6108da6717bb71de2d246ec260c01b610e35565b6108ee67b280278154b3169960c01b610e35565b6108f730610920565b905090565b7f200000000000000000000000000000000000000000000000000000000000000081565b600061093667a0566d98c84bc94360c01b610e35565b61094a67337a55a19c3f471f60c01b610e35565b61095e67ec3d6c7978eb577f60c01b610e35565b6000808373ffffffffffffffffffffffffffffffffffffffff1673ffffffffffffffffffffffffffffffffffffffff168152602001908152602001600020549050919050565b6109b8678fea515ec6a3f9a660c01b610451565b6109cc67ebbf9d77ff2e678160c01b610451565b6109e067f12cc171a8c2ce6b60c01b610451565b6109f46707dbfd111eade9f660c01b610451565b610a1d7f2000000000000000000000000000000000000000000000000000000000000000610de6565b610a5c576040517f08c379a0000000000000000000000000000000000000000000000000000000008152600401610a53906116ea565b60405180910390fd5b610a706748459107a462a22c60c01b610451565b610a846757b04a0b825ab95960c01b610451565b8060026000847bffffffffffffffffffffffffffffffffffffffffffffffffffffffff19167bffffffffffffffffffffffffffffffffffffffffffffffffffffffff1916815260200190815260200160002081905550610aee671fef5a88d566ad1e60c01b610451565b610b0267956f4810b4c6d08860c01b610451565b7fdb8ed917742b49e83acd1322bcaa8f18b1e5f78a70784c43ea14db7ab50e628d8282604051610b3392919061181d565b60405180910390a15050565b610b53670e783017a0721dd660c01b610451565b610b6767d14517d619b4b59260c01b610451565b610b7b67eaddc9ac774092cc60c01b610451565b610b8c8280519060200120826109a4565b5050565b6000610ba6676c614f714a848afe60c01b610e35565b610bba671b366d7cbf26285a60c01b610e35565b610bce67a5121cd77098b3de60c01b610e35565b610bdf610bd96108b0565b83610e38565b9050919050565b610bfa67af55d3e6674f9f2460c01b610e35565b610c0e67457edc75d9f2a30360c01b610e35565b610c22671a318b07dd9d7b1760c01b610e35565b610c3667d43edc6223923ea660c01b610e35565b610c5f7f8000000000000000000000000000000000000000000000000000000000000000610de6565b610c9e576040517f08c379a0000000000000000000000000000000000000000000000000000000008152600401610c95906116ea565b60405180910390fd5b610cb2677c8fbf7d8fac38a960c01b610e35565b610cc667f4329d3fe341680260c01b610e35565b610cda67e23e692b2fcf1bb160c01b610e35565b610cf78282610cf233610cec87610920565b86610e83565b610f7b565b5050565b7f800000000000000000000000000000000000000000000000000000000000000081565b6000610d356791758a1a8b89b3e160c01b610e35565b610d4967cf0ade56ea6c5cd460c01b610e35565b610d5d67f555d53ce88d1da660c01b610e35565b610d6f610d6984610920565b83610e38565b905092915050565b600160009054906101000a900473ffffffffffffffffffffffffffffffffffffffff1681565b610db167ee7cd5376e17e30260c01b610e35565b610dc567c717d22cf99426a060c01b610e35565b610dd9676f9ba393bc323da660c01b610e35565b610de33082610be6565b50565b6000610dfc67d97351b4c405c63660c01b610e35565b610e1067f5120decfa7cad4860c01b610e35565b610e24678f2495b03946a1dc60c01b610e35565b610e2e3383610d1f565b9050919050565b50565b6000610e4e670647c42aefe9260760c01b610e35565b610e62670e91319ec7aee7f760c01b610e35565b610e7667dcf951fe67a66e1560c01b610e35565b8182841614905092915050565b6000610e9967265b47a6a16172ec60c01b610e35565b610ead670a91a654a1b07aa260c01b610e35565b610ec167863ab5a61547be6760c01b610e35565b6000610ecc85610920565b9050610ee267d3c2cafaa839d10760c01b610e35565b82811684179350610efd6702c379c20de63cba60c01b610e35565b827fffffffffffffffffffffffffffffffffffffffffffffffffffffffffffffffff1881167fffffffffffffffffffffffffffffffffffffffffffffffffffffffffffffffff1884169350610f5c673c40c07f25e5bf2f60c01b610e35565b610f7067630c17020e942be460c01b610e35565b839150509392505050565b610f8f673754610b5d8ccd7c60c01b610e35565b610fa36701a6a25f6c6e466960c01b610e35565b806000808573ffffffffffffffffffffffffffffffffffffffff1673ffffffffffffffffffffffffffffffffffffffff16815260200190815260200160002081905550610ffa67c24383dcfa2f466d60c01b610e35565b61100e67ff834263ca28c8e460c01b610e35565b8273ffffffffffffffffffffffffffffffffffffffff167fe9be537308880e0f56b7d7cfd7abf85f14c4934486d138f848b92a0cbaf659b48383604051611056929190611846565b60405180910390a2505050565b6000604051905090565b600080fd5b600080fd5b600080fd5b600080fd5b6000601f19601f8301169050919050565b7f4e487b7100000000000000000000000000000000000000000000000000000000600052604160045260246000fd5b6110ca82611081565b810181811067ffffffffffffffff821117156110e9576110e8611092565b5b80604052505050565b60006110fc611063565b905061110882826110c1565b919050565b600067ffffffffffffffff82111561112857611127611092565b5b61113182611081565b9050602081019050919050565b82818337600083830152505050565b600061116061115b8461110d565b6110f2565b90508281526020810184848401111561117c5761117b61107c565b5b61118784828561113e565b509392505050565b600082601f8301126111a4576111a3611077565b5b81356111b484826020860161114d565b91505092915050565b6000602082840312156111d3576111d261106d565b5b600082013567ffffffffffffffff8111156111f1576111f0611072565b5b6111fd8482850161118f565b91505092915050565b600081519050919050565b600082825260208201905092915050565b60005b83811015611240578082015181840152602081019050611225565b60008484015250505050565b600061125782611206565b6112618185611211565b9350611271818560208601611222565b61127a81611081565b840191505092915050565b6000602082019050818103600083015261129f818461124c565b905092915050565b60007fffffffff0000000000000000000000000000000000000000000000000000000082169050919050565b6112dc816112a7565b81146112e757600080fd5b50565b6000813590506112f9816112d3565b92915050565b6000602082840312156113155761131461106d565b5b6000611323848285016112ea565b91505092915050565b6000819050919050565b61133f8161132c565b82525050565b600060208201905061135a6000830184611336565b92915050565b600073ffffffffffffffffffffffffffffffffffffffff82169050919050565b600061138b82611360565b9050919050565b61139b81611380565b81146113a657600080fd5b50565b6000813590506113b881611392565b92915050565b6000602082840312156113d4576113d361106d565b5b60006113e2848285016113a9565b91505092915050565b6113f48161132c565b81146113ff57600080fd5b50565b600081359050611411816113eb565b92915050565b6000806040838503121561142e5761142d61106d565b5b600061143c858286016112ea565b925050602061144d85828601611402565b9150509250929050565b600067ffffffffffffffff82111561147257611471611092565b5b61147b82611081565b9050602081019050919050565b600061149b61149684611457565b6110f2565b9050828152602081018484840111156114b7576114b661107c565b5b6114c284828561113e565b509392505050565b600082601f8301126114df576114de611077565b5b81356114ef848260208601611488565b91505092915050565b6000806040838503121561150f5761150e61106d565b5b600083013567ffffffffffffffff81111561152d5761152c611072565b5b611539858286016114ca565b925050602061154a85828601611402565b9150509250929050565b60006020828403121561156a5761156961106d565b5b600061157884828501611402565b91505092915050565b60008115159050919050565b61159681611581565b82525050565b60006020820190506115b1600083018461158d565b92915050565b600080604083850312156115ce576115cd61106d565b5b60006115dc858286016113a9565b92505060206115ed85828601611402565b9150509250929050565b61160081611380565b82525050565b600060208201905061161b60008301846115f7565b92915050565b600082825260208201905092915050565b7f61636365737320726f6c65206e6f742073657400000000000000000000000000600082015250565b6000611668601383611621565b915061167382611632565b602082019050919050565b600060208201905081810360008301526116978161165b565b9050919050565b7f6163636573732064656e69656400000000000000000000000000000000000000600082015250565b60006116d4600d83611621565b91506116df8261169e565b602082019050919050565b60006020820190508181036000830152611703816116c7565b9050919050565b600081905092915050565b600061172082611206565b61172a818561170a565b935061173a818560208601611222565b80840191505092915050565b60006117528284611715565b915081905092915050565b7f657865637574696f6e206661696c656400000000000000000000000000000000600082015250565b6000611793601083611621565b915061179e8261175d565b602082019050919050565b600060208201905081810360008301526117c281611786565b9050919050565b6117d2816112a7565b82525050565b60006060820190506117ed60008301866117c9565b81810360208301526117ff818561124c565b90508181036040830152611813818461124c565b9050949350505050565b600060408201905061183260008301856117c9565b61183f6020830184611336565b9392505050565b600060408201905061185b6000830185611336565b6118686020830184611336565b939250505056fea26469706673582212203a2ed7987d117ac0129abd874db5da82690f444a36e4c1840151e17b58203ceb64736f6c63430008150033",
  "linkReferences": {},
  "deployedLinkReferences": {}
}