{
  "address": "0x8492C8E14f168eE6b4f97e7e83d9351558c35F92",
  "abi": [
    {
      "anonymous": false,
      "inputs": [
        {
          "indexed": true,
          "internalType": "address",
          "name": "adapterAddress",
          "type": "address"
        },
        {
          "indexed": true,
          "internalType": "address",
          "name": "ownableTargetAddress",
          "type": "address"
        }
      ],
      "name": "NewOwnableToAccessControlAdapterDeployed",
      "type": "event"
    },
    {
      "inputs": [
        {
          "internalType": "address",
          "name": "targetAddress",
          "type": "address"
        }
      ],
      "name": "deployNewOwnableToAccessControlAdapter",
      "outputs": [
        {
          "internalType": "address",
          "name": "",
          "type": "address"
        }
      ],
      "stateMutability": "nonpayable",
      "type": "function"
    }
  ],
  "transactionHash": "0xa6a80322de08699f1cd9855b795ee9ac8157fcdeb77e4975e8e3bc14b190c741",
  "args": [],
  "numDeployments": 1,
  "solcInputHash": "f3b0c8e313d75e7b1407fbf8bd948f3c",
  "bytecode": "0x608060405234801561001057600080fd5b50610d80806100206000396000f3fe608060405234801561001057600080fd5b506004361061002b5760003560e01c80635020380814610030575b600080fd5b61004361003e3660046101c9565b61005f565b6040516001600160a01b03909116815260200160405180910390f35b6000336001600160a01b0316826001600160a01b0316638da5cb5b6040518163ffffffff1660e01b81526004016020604051808303816000875af11580156100ab573d6000803e3d6000fd5b505050506040513d601f19601f820116820180604052508101906100cf91906101ed565b6001600160a01b0316146101185760405162461bcd60e51b815260206004820152600c60248201526b3737ba1030b71037bbb732b960a11b604482015260640160405180910390fd5b60008233604051610128906101a4565b6001600160a01b03928316815291166020820152604001604051809103906000f08015801561015b573d6000803e3d6000fd5b509050826001600160a01b0316816001600160a01b03167f480c2ac1e89311d31b5f348c0934382be45d3bb75dfe35f2f209652fed1505b360405160405180910390a392915050565b610b408061020b83390190565b6001600160a01b03811681146101c657600080fd5b50565b6000602082840312156101db57600080fd5b81356101e6816101b1565b9392505050565b6000602082840312156101ff57600080fd5b81516101e6816101b156fe608060405234801561001057600080fd5b50604051610b40380380610b4083398101604081905261002f9161012f565b80600061003f82600019806100bb565b61004a3082806100bb565b50506001600160a01b0382166100955760405162461bcd60e51b815260206004820152600c60248201526b7a65726f206164647265737360a01b604482015260640160405180910390fd5b50600180546001600160a01b0319166001600160a01b0392909216919091179055610162565b6001600160a01b0383166000818152602081815260409182902084905581518581529081018490527fe9be537308880e0f56b7d7cfd7abf85f14c4934486d138f848b92a0cbaf659b4910160405180910390a2505050565b80516001600160a01b038116811461012a57600080fd5b919050565b6000806040838503121561014257600080fd5b61014b83610113565b915061015960208401610113565b90509250929050565b6109cf806101716000396000f3fe6080604052600436106100e15760003560e01c8063725f36261161007f578063c688d69311610059578063c688d693146102bc578063d4b83992146102dc578063d5bb7f6714610314578063fcc2c0781461033457610100565b8063725f362614610254578063ae5b102e14610284578063ae682e2e146102a457610100565b806334e48c9e116100bb57806334e48c9e146101c657806344276733146101de578063491d2611146102145780635defb40d1461023457610100565b806309c5eabe146101405780630e82fe25146101695780632b521416146101a457610100565b36610100576100fe60405180602001604052806000815250610354565b005b6100fe6000368080601f01602080910402602001604051908101604052809392919081815260200183838082843760009201919091525061035492505050565b61015361014e366004610742565b610354565b60405161016091906107e3565b60405180910390f35b34801561017557600080fd5b50610196610184366004610813565b60026020526000908152604090205481565b604051908152602001610160565b3480156101b057600080fd5b5030600090815260208190526040902054610196565b3480156101d257600080fd5b50610196600160fd1b81565b3480156101ea57600080fd5b506101966101f9366004610845565b6001600160a01b031660009081526020819052604090205490565b34801561022057600080fd5b506100fe61022f366004610860565b6104de565b34801561024057600080fd5b506100fe61024f36600461088a565b610560565b34801561026057600080fd5b5061027461026f3660046108e3565b610575565b6040519015158152602001610160565b34801561029057600080fd5b506100fe61029f3660046108fc565b610597565b3480156102b057600080fd5b50610196600160ff1b81565b3480156102c857600080fd5b506102746102d73660046108fc565b61061c565b3480156102e857600080fd5b506001546102fc906001600160a01b031681565b6040516001600160a01b039091168152602001610160565b34801561032057600080fd5b506100fe61032f3660046108e3565b610645565b34801561034057600080fd5b5061027461034f3660046108e3565b610652565b6020810151815160609190156103f0576001600160e01b03198116600090815260026020526040812054908190036103c95760405162461bcd60e51b81526020600482015260136024820152721858d8d95cdcc81c9bdb19481b9bdd081cd95d606a1b60448201526064015b60405180910390fd5b6103d281610652565b6103ee5760405162461bcd60e51b81526004016103c090610918565b505b60015460405160009182916001600160a01b0390911690349061041490889061093f565b60006040518083038185875af1925050503d8060008114610451576040519150601f19603f3d011682016040523d82523d6000602084013e610456565b606091505b50915091508161049b5760405162461bcd60e51b815260206004820152601060248201526f195e1958dd5d1a5bdb8819985a5b195960821b60448201526064016103c0565b7f57a62eca76fc623c92f161d2a4b851851ece707135ce2af1eec256d660571b6d8386836040516104ce9392919061095b565b60405180910390a1949350505050565b6104eb600160fd1b610652565b6105075760405162461bcd60e51b81526004016103c090610918565b6001600160e01b03198216600081815260026020908152604091829020849055815192835282018390527fdb8ed917742b49e83acd1322bcaa8f18b1e5f78a70784c43ea14db7ab50e628d910160405180910390a15050565b6105718280519060200120826104de565b5050565b30600090815260208190526040812054610591905b8316831490565b92915050565b6105a4600160ff1b610652565b6105c05760405162461bcd60e51b81526004016103c090610918565b6105718282610617336105e8876001600160a01b031660009081526020819052604090205490565b6001600160a01b0391909116600090815260208190526040902054600019808818821618908716919091171690565b61065e565b6001600160a01b03821660009081526020819052604081205461063e9061058a565b9392505050565b61064f3082610597565b50565b6000610591338361061c565b6001600160a01b0383166000818152602081815260409182902084905581518581529081018490527fe9be537308880e0f56b7d7cfd7abf85f14c4934486d138f848b92a0cbaf659b4910160405180910390a2505050565b634e487b7160e01b600052604160045260246000fd5b600067ffffffffffffffff808411156106e7576106e76106b6565b604051601f8501601f19908116603f0116810190828211818310171561070f5761070f6106b6565b8160405280935085815286868601111561072857600080fd5b858560208301376000602087830101525050509392505050565b60006020828403121561075457600080fd5b813567ffffffffffffffff81111561076b57600080fd5b8201601f8101841361077c57600080fd5b61078b848235602084016106cc565b949350505050565b60005b838110156107ae578181015183820152602001610796565b50506000910152565b600081518084526107cf816020860160208601610793565b601f01601f19169290920160200192915050565b60208152600061063e60208301846107b7565b80356001600160e01b03198116811461080e57600080fd5b919050565b60006020828403121561082557600080fd5b61063e826107f6565b80356001600160a01b038116811461080e57600080fd5b60006020828403121561085757600080fd5b61063e8261082e565b6000806040838503121561087357600080fd5b61087c836107f6565b946020939093013593505050565b6000806040838503121561089d57600080fd5b823567ffffffffffffffff8111156108b457600080fd5b8301601f810185136108c557600080fd5b6108d4858235602084016106cc565b95602094909401359450505050565b6000602082840312156108f557600080fd5b5035919050565b6000806040838503121561090f57600080fd5b61087c8361082e565b6020808252600d908201526c1858d8d95cdcc819195b9a5959609a1b604082015260600190565b60008251610951818460208701610793565b9190910192915050565b63ffffffff60e01b8416815260606020820152600061097d60608301856107b7565b828103604084015261098f81856107b7565b969550505050505056fea26469706673582212206993ad950cca82a01e8e72c0503e3a006930148e125b67ad2894063853f6078264736f6c63430008150033a26469706673582212202a1a609a49d984f2d2e0a8326ec01d7930e4a3a728bb430cf69248ad2641e5a464736f6c63430008150033",
  "devdoc": {
    "author": "Basil Gorin",
    "events": {
      "NewOwnableToAccessControlAdapterDeployed(address,address)": {
        "details": "Fired in deployNewOwnableToAccessControlAdapter",
        "params": {
          "adapterAddress": "newly deployed OwnableToAccessControlAdapter address",
          "ownableTargetAddress": "OZ Ownable target contract address"
        }
      }
    },
    "kind": "dev",
    "methods": {
      "deployNewOwnableToAccessControlAdapter(address)": {
        "params": {
          "targetAddress": "OZ Ownable target address to bind OwnableToAccessControlAdapter to"
        },
        "returns": {
          "_0": "address of the newly deployed OwnableToAccessControlAdapter contract"
        }
      }
    },
    "title": "Adapter Factory",
    "version": 1
  },
  "userdoc": {
    "kind": "user",
    "methods": {
      "deployNewOwnableToAccessControlAdapter(address)": {
        "notice": "Deploys new OwnableToAccessControlAdapter bound to the OZ Ownable contract specified.      Can be executed only by the OZ Ownable target owner. This owner is expected to transfer      the ownership to the newly deployed OwnableToAccessControlAdapter contract address."
      }
    },
    "notice": "Helper contract simplifying the deployment of the OwnableToAccessControlAdapter",
    "version": 1
  },
  "storageLayout": {
    "storage": [],
    "types": null
  }
}